:020000040800F2
:100000000000032019400008DD3A0008E13A00082A
:10001000E53A0008E93A0008ED3A0008000000005F
:10002000000000000000000000000000F13A00089D
:10003000F53A000800000000F93A0008FD3A00080F
:1000400069400008694000086940000869400008EC
:1000500069400008694000086940000869400008DC
:1000600069400008694000086940000869400008CC
:1000700069400008694000086940000869400008BC
:1000800069400008694000086940000869400008AC
:10009000694000086940000869400008694000089C
:1000A000694000086940000869400008694000088C
:1000B000694000086940000869400008694000087C
:1000C000694000086940000869400008694000086C
:1000D000694000086940000869400008013B0008C9
:1000E0000D3B0008694000086940000869400008AD
:1000F0006940000869400008253B00086940000885
:10010000694000086940000869400008694000082B
:100110006940000869400008313B00086940000858
:10012000694000086940000869400008694000080B
:1001300069400008694000086940000869400008FB
:1001400069400008694000086940000869400008EB
:1001500069400008694000086940000869400008DB
:1001600069400008694000086940000869400008CB
:10017000694000086940000869400008000000006C
:1001800069400008694000086940000869400008AB
:10019000694000086940000869400008694000089B
:0C01A00069400008694000086940000840
:1001B00010B5054C237833B9044B13B10448AFF3A1
:1001C00000800123237010BDC8090020000000003A
:1001D000C08A000808B5034B1BB103490348AFF3BD
:1001E000008008BD00000000CC090020C08A000883
:1001F000034613F8012B002AFBD1181A0138704767
:1002000001F0FF01102A2BDB10F0070F08D010F8C7
:10021000013B013A8B422DD010F0070F42B3F6D1CB
:10022000F0B441EA012141EA014122F007047FF0E4
:1002300000070023F0E80256083C85EA010586EA3B
:10024000010685FA47F5A3FA87F586FA47F6A5FA77
:1002500087F68EB9EED1F0BC01F0FF0102F0070283
:1002600032B110F8013B013A83EA010313B1F8D12E
:100270000020704701387047002D06BF354603380F
:10028000073815F0010F07D1013015F4807F02BF48
:10029000013015F4C03F0130F0BC0138704700BF99
:1002A00081F0004102E000BF83F0004330B54FEA27
:1002B00041044FEA430594EA050F08BF90EA020F94
:1002C0001FBF54EA000C55EA020C7FEA645C7FEA27
:1002D000655C00F0E2804FEA5454D4EB5555B8BF4A
:1002E0006D420CDD2C4480EA020281EA030382EABB
:1002F000000083EA010180EA020281EA0303362D4D
:1003000088BF30BD11F0004F4FEA01314FF4801C1F
:100310004CEA113102D0404261EB410113F0004F31
:100320004FEA03334CEA133302D0524263EB4303E8
:1003300094EA050F00F0A780A4F10104D5F1200E86
:100340000DDB02FA0EFC22FA05F2801841F10001E1
:1003500003FA0EF2801843FA05F359410EE0A5F1B5
:1003600020050EF1200E012A03FA0EFC28BF4CF0E6
:10037000020C43FA05F3C01851EBE37101F000459C
:1003800007D54FF0000EDCF1000C7EEB00006EEBA9
:100390000101B1F5801F1BD3B1F5001F0CD3490833
:1003A0005FEA30004FEA3C0C04F101044FEA44528A
:1003B00012F5800F80F09A80BCF1004F08BF5FEA11
:1003C000500C50F1000041EB045141EA050130BDF1
:1003D0005FEA4C0C404141EB0101013C28BFB1F503
:1003E000801FE9D291F0000F04BF01460020B1FA4E
:1003F00081F308BF2033A3F10B03B3F120020CDA21
:100400000C3208DD02F1140CC2F10C0201FA0CF0FE
:1004100021FA02F10CE002F11402D8BFC2F1200C63
:1004200001FA02F120FA0CFCDCBF41EA0C01904019
:10043000E41AA2BF01EB0451294330BD6FEA040462
:100440001F3C1CDA0C340EDC04F11404C4F120024D
:1004500020FA04F001FA02F340EA030021FA04F35F
:1004600045EA030130BDC4F10C04C4F1200220FAB6
:1004700002F001FA04F340EA0300294630BD21FAF4
:1004800004F0294630BD94F0000F83F4801306BFBA
:1004900081F480110134013D4EE77FEA645C18BFAE
:1004A0007FEA655C29D094EA050F08BF90EA020F45
:1004B00005D054EA000C04BF1946104630BD91EA3D
:1004C000030F1EBF0021002030BD5FEA545C05D140
:1004D0004000494128BF41F0004130BD14F580047F
:1004E0003CBF01F5801130BD01F0004545F0FE41F3
:1004F00041F470014FF0000030BD7FEA645C1ABF28
:10050000194610467FEA655C1CBF0B46024650EA5E
:10051000013406BF52EA033591EA030F41F400218A
:1005200030BD00BF90F0000F04BF0021704730B510
:100530004FF4806404F132044FF000054FF00001E5
:1005400050E700BF90F0000F04BF0021704730B5A6
:100550004FF4806404F1320410F0004548BF40427B
:100560004FF000013EE700BF42004FEAE2014FEAD0
:1005700031014FEA02701FBF12F07F4393F07F4FAB
:1005800081F06051704732F07F4208BF704793F0AE
:100590007F4F04BF41F40021704730B54FF46074C1
:1005A00001F0004521F000411CE700BF50EA0102C4
:1005B00008BF704730B54FF000050AE050EA01026D
:1005C00008BF704730B511F0004502D5404261EBDD
:1005D00041014FF4806404F132045FEA915C3FF41E
:1005E000D8AE4FF003025FEADC0C18BF03325FEABB
:1005F000DC0C18BF033202EBDC02C2F1200300FA6C
:1006000003FC20FA02F001FA03FE40EA0E0021FA90
:1006100002F11444BDE600BF70B54FF0FF0C4CF47E
:10062000E06C1CEA11541DBF1CEA135594EA0C0F30
:1006300095EA0C0F00F0DEF82C4481EA030621EA6B
:100640004C5123EA4C5350EA013518BF52EA0335A6
:1006500041F4801143F4801338D0A0FB02CE4FF058
:100660000005E1FB02E506F00042E0FB03E54FF088
:100670000006E1FB03569CF0000F18BF4EF0010E80
:10068000A4F1FF04B6F5007F64F5407404D25FEA7C
:100690004E0E6D4146EB060642EAC62141EA55512F
:1006A0004FEAC52040EA5E504FEACE2EB4F1FD0C71
:1006B00088BFBCF5E06F1ED8BEF1004F08BF5FEAEF
:1006C000500E50F1000041EB045170BD06F00046A1
:1006D00046EA010140EA020081EA0301B4EB5C044E
:1006E000C2BFD4EB0C0541EA045170BD41F4801146
:1006F0004FF0000E013C00F3AB8014F1360FDEBF6B
:10070000002001F0004170BDC4F10004203C35DA46
:100710000C341BDC04F11404C4F1200500FA05F3C9
:1007200020FA04F001FA05F240EA020001F000426A
:1007300021F0004110EBD37021FA04F642EB0601E0
:100740005EEA430E08BF20EAD37070BDC4F10C040A
:10075000C4F1200500FA04F320FA05F001FA04F2CE
:1007600040EA020001F0004110EBD37041F10001BA
:100770005EEA430E08BF20EAD37070BDC4F12005C5
:1007800000FA05F24EEA020E20FA04F301FA05F22D
:1007900043EA020321FA04F001F0004121FA04F2D5
:1007A00020EA020000EBD3705EEA430E08BF20EAA5
:1007B000D37070BD94F0000F0FD101F000464000DF
:1007C00041EB010111F4801F08BF013CF7D041EA61
:1007D000060195F0000F18BF704703F00046520065
:1007E00043EB030313F4801F08BF013DF7D043EA36
:1007F0000603704794EA0C0F0CEA135518BF95EAEC
:100800000C0F0CD050EA410618BF52EA4306D1D172
:1008100081EA030101F000414FF0000070BD50EA91
:10082000410606BF1046194652EA430619D094EA1B
:100830000C0F02D150EA013613D195EA0C0F05D105
:1008400052EA03361CBF104619460AD181EA030159
:1008500001F0004141F0FE4141F470014FF0000011
:1008600070BD41F0FE4141F4780170BD70B54FF0AC
:10087000FF0C4CF4E06C1CEA11541DBF1CEA13552C
:1008800094EA0C0F95EA0C0F00F0A7F8A4EB05040E
:1008900081EA030E52EA03354FEA013100F0888005
:1008A0004FEA03334FF0805545EA131343EA1263CE
:1008B0004FEA022245EA111545EA10654FEA002683
:1008C0000EF000419D4208BF964244F1FD0404F53C
:1008D000407402D25B084FEA3202B61A65EB030598
:1008E0005B084FEA32024FF480104FF4002CB6EB55
:1008F000020E75EB030E22BFB61A754640EA0C00D5
:100900005B084FEA3202B6EB020E75EB030E22BF14
:10091000B61A754640EA5C005B084FEA3202B6EB55
:10092000020E75EB030E22BFB61A754640EA9C0014
:100930005B084FEA3202B6EB020E75EB030E22BFE4
:10094000B61A754640EADC0055EA060E18D04FEAA2
:10095000051545EA16754FEA06164FEAC30343EA42
:1009600052734FEAC2025FEA1C1CC0D111F4801F0F
:100970000BD141EA00014FF000004FF0004CB6E708
:1009800011F4801F04BF01430020B4F1FD0C88BFA7
:10099000BCF5E06F3FF6AFAEB5EB030C04BFB6EBB2
:1009A000020C5FEA500C50F1000041EB045170BDA5
:1009B0000EF0004E4EEA113114EB5C04C2BFD4EBD2
:1009C0000C0541EA045170BD41F480114FF0000E56
:1009D000013C90E645EA060E8DE60CEA135594EAD2
:1009E0000C0F08BF95EA0C0F3FF43BAF94EA0C0FD5
:1009F0000AD150EA01347FF434AF95EA0C0F7FF44A
:100A000025AF104619462CE795EA0C0F06D152EA9D
:100A100003353FF4FDAE1046194622E750EA410681
:100A200018BF52EA43067FF4C5AE50EA41047FF492
:100A30000DAF52EA43057FF4EBAE12E74FF0FF3CF7
:100A400006E000BF4FF0010C02E000BF4FF0010CC8
:100A50004DF804CD4FEA410C7FEA6C5C4FEA430C41
:100A600018BF7FEA6C5C1BD001B050EA410C0CBF90
:100A700052EA430C91EA030F02BF90EA020F0020F2
:100A8000704710F1000F91EA030F58BF994208BF59
:100A900090422CBFD8176FEAE37040F00100704716
:100AA0004FEA410C7FEA6C5C02D150EA013C07D16D
:100AB0004FEA430C7FEA6C5CD6D152EA033CD3D0B8
:100AC0005DF8040B704700BF8446104662468C46B2
:100AD0001946634600E000BF01B5FFF7B7FF0028E5
:100AE00048BF10F1000F01BD4DF808EDFFF7F4FF0E
:100AF0000CBF012000205DF808FB00BF4DF808ED99
:100B0000FFF7EAFF34BF012000205DF808FB00BFBB
:100B10004DF808EDFFF7E0FF94BF012000205DF8DD
:100B200008FB00BF4DF808EDFFF7CEFF94BF012092
:100B300000205DF808FB00BF4DF808EDFFF7C4FF8B
:100B400034BF012000205DF808FB00BF4FEA410CD4
:100B50007FEA6C5C02D150EA013C0AD14FEA430CB7
:100B60007FEA6C5C02D152EA033C02D14FF00000F4
:100B700070474FF0010070474FEA410212F5001232
:100B800015D211D56FF47873B3EB625212D94FEAD4
:100B9000C12343F0004343EA505311F0004F23FABE
:100BA00002F018BF404270474FF00000704750EA13
:100BB000013005D111F0004008BF6FF000407047D0
:100BC0004FF00000704700BF53B94AB9002908BF71
:100BD00000281CBF4FF0FF314FF0FF3000F06EB91E
:100BE000ADF1080C6DE904CE00F006F8DDF804E084
:100BF000DDE9022304B070472DE9F047089D044663
:100C00008C46002B40F083808A42174647D9B2FABF
:100C100082F242B1C2F1200024FA00F091409740E4
:100C200040EA010C94404FEA1748230CBCFBF8F64D
:100C30001FFA87FE08FB16C143EA014306FB0EF1CB
:100C4000994209D9FB1806F1FF3080F019819942C9
:100C500040F21681023E3B445B1AA4B2B3FBF8F0AB
:100C600008FB103344EA034400FB0EFEA64509D9F5
:100C70003C1900F1FF3380F00581A64540F2028166
:100C800002383C4440EA0640A4EB0E0400261DB1A5
:100C9000D4400023C5E900433146BDE8F08702B9DE
:100CA000FFDEB2FA82F2002A50D1CB1B4FEA174E78
:100CB0001FFA87F80126B3FBFEFC210C0EFB1C3348
:100CC00041EA034108FB0CF38B4207D979180CF178
:100CD000FF3002D28B4200F2E9808446C91AA3B2E7
:100CE000B1FBFEF00EFB101143EA014408FB00F8D3
:100CF000A04507D93C1900F1FF3302D2A04500F20C
:100D0000D9801846A4EB080440EA0C40BFE78B42A8
:100D100009D9002D00F0B1800026C5E90001304658
:100D20003146BDE8F087B3FA83F6002E4AD18B42F4
:100D300002D3824200F2B880841A61EB03010120E1
:100D40008C46002DA8D0C5E9004CA5E7C2F12003D0
:100D500020FA03F6974001FA02F04FEA174ED94005
:100D60003043030CB1FBFEF61FFA87F80EFB161199
:100D700043EA014306FB08F1994204FA02F409D957
:100D8000FB1806F1FF3C80F08D80994240F28A808A
:100D9000023E3B445B1A81B2B3FBFEF00EFB103304
:100DA00041EA034100FB08F38B4207D9791800F1AF
:100DB000FF3C73D28B4271D902383944CB1A40EAD6
:100DC000064678E7C6F1200C03FA06F422FA0CF383
:100DD0001C4320FA0CF701FA06F34FEA144E21FAED
:100DE0000CF11F433B0CB1FBFEF91FFA84F80EFB1C
:100DF000191143EA014109FB08FA8A4502FA06F291
:100E000000FA06F308D9611809F1FF3048D28A4583
:100E100046D9A9F102092144A1EB0A01BFB2B1FBF5
:100E2000FEF00EFB101147EA014700FB08F8B84539
:100E300007D9E71900F1FF312ED2B8452CD9023875
:100E4000274440EA0940A7EB0807A0FB02894F4569
:100E5000C64649461AD317D05DB1B3EB0E0267EB15
:100E6000010707FA0CFCF2404CEA0202F740C5E920
:100E7000002700263146BDE8F0872E4628460BE7BE
:100E80000646E9E61846FDE64345E5D2B8EB020E14
:100E900069EB04010138DFE70846D2E760468DE7D9
:100EA0008146B9E7664675E730464AE7ACF1020C81
:100EB000394413E702383C4424E700BF704700BFC1
:100EC00008B50B4B1A6842F400721A601A6842F4B3
:100ED00080621A601A6842F480721A60032000F07F
:100EE0002DF8002002F0BAFD02F0AAFC002008BD97
:100EF000003C0240034A044B11681B780B4413600A
:100F0000704700BF840B002000000020014B1868D0
:100F1000704700BF840B002038B50446FFF7F6FF8A
:100F2000631C054602D0044B1B781C44FFF7EEFF00
:100F3000431BA342FAD338BD000000200849CA6809
:100F400010B400024FF6FF04224000F4E0631343A4
:100F500043F0BF6343F400335DF8044BCB6070474C
:100F600000ED00E0194BDB68C3F3022330B4C3F19A
:100F70000705042D03F1040428BF0425062C19D904
:100F8000033B4FF0FF349C4022EA04024FF0FF3451
:100F9000AC4021EA04019940002841EA02010CDB3F
:100FA00000F1604000F561400901C9B280F800130A
:100FB00030BC704700221346E8E7054B00F00F00F5
:100FC00009010344C9B2197630BC704700ED00E056
:100FD000FCEC00E0002807DB00F01F01034A400999
:100FE00001238B4042F82030704700BF00E100E051
:100FF00000280DDB430907492033012200F01F00C0
:1010000002FA00F041F82300BFF34F8FBFF36F8F58
:10101000704700BF00E100E090F83530022B03D0AC
:1010200080234365012070470268052380F835302E
:10103000136823F001031360002070472DE9F04F7F
:1010400000230E68DFF86882DFF868E283B003E00F
:101050000133102B00F0AB8001229A4032EA0604E3
:1010600002EA060CF4D14D6825F0100ABAF1020F1D
:1010700000F0A080D0F800B04FEA4309032404FA3E
:1010800009F405F003072BEA040B07FA09F70AF144
:10109000FF3A47EA0B07BAF1010F6FEA0404076051
:1010A00040F2AE80C7688A683C4002FA09F22243E7
:1010B000EF00C260CCD500220192D8F8442042F45F
:1010C0008042C8F84420D8F8442023F0030404F1F7
:1010D000804402F4804204F59C34019203F003073B
:1010E000019AD4F80890BF000F22BA4029EA020AF8
:1010F000694A90422ED002F58062904200F09380BF
:10110000664A904200F09680654A904200F09980CD
:10111000644A904200F09C80634A904200F0A680AE
:10112000624A904200F0A980DFF88C91484500F0B7
:101130009680DFF88891484500F0A680DFF880911E
:1011400048450CBF4FF009094FF00A0909FA07F7A3
:101150004AEA070AC4F808A0DEF800206FEA0C0784
:10116000EC0354BF3A404CEA0202CEF80020DEF80D
:101170000440AA0354BF3C404CEA0404CEF80440A7
:10118000DEF80840EA0254BF3C404CEA0404CEF8C2
:101190000840DEF80C20AC0203F1010354BF3A40D2
:1011A0004CEA0202102BCEF80C207FF455AF03B0AE
:1011B000BDE8F08F4FEAD30900EB890903F0070778
:1011C000D9F82040BF004FF00F0B0BFA07FB24EAC1
:1011D0000B0A0C69BC4044EA0A04C9F82040D0F864
:1011E00000A04FEA4309032404FA09F405F00307B9
:1011F0002AEA040A07FA09F747EA0A07E4430760FC
:10120000876807EA040ACF6807FA09F747EA0A0776
:101210008760D0F804A0C5F300172AEA02029F40B5
:10122000174347603EE74FF0010909FA07F74AEA1A
:10123000070A8FE74FF0020909FA07F74AEA070A97
:1012400088E74FF0030909FA07F74AEA070A81E736
:101250004FF0040909FA07F74AEA070A7AE74FF05C
:10126000070909FA07F74AEA070A73E74FF0050981
:1012700009FA07F74AEA070A6CE74FF0060909FA84
:1012800007F74AEA070A65E74FF0080909FA07F77E
:101290004AEA070A5EE700BF000002400008024079
:1012A000000C0240001002400014024000180240EE
:1012B00000380240003C0140001C02400020024077
:1012C000002402400369194214BF01200020704726
:1012D00002B9090481617047044A5169014200D191
:1012E000704708B5506102F009FE08BD003C01409E
:1012F000002800F060812DE9F0410368DD0782B02D
:1013000004462FD5AD498A6802F00C02042A00F089
:10131000EC808A6802F00C02082A00F0E280636820
:10132000B3F5803F00F0EB80B3F5A02F00F05081C3
:10133000A24D2A6822F480322A602A6822F4802290
:101340002A60002B40F0E080FFF7E0FD064605E054
:10135000FFF7DCFD801B642800F200812B689B03F3
:10136000F6D423689F0728D5944A916811F00C0F92
:1013700000F09A80916801F00C01082900F090803B
:10138000E368002B00F006818D4B8C4E01221A6021
:10139000FFF7BCFD054605E0FFF7B8FD401B02283E
:1013A00000F2DC8033689807F6D53368226923F0B1
:1013B000F80343EAC203336023681A075CD4580772
:1013C0003AD57E4A136C13F0805340F08880019325
:1013D000136C43F080531364136C03F08053019338
:1013E000019B0125774E3368D90540F1A780A3689A
:1013F000012B00F0B780052B00F026816F4E326F75
:1014000022F001023267326F22F004023267002BB1
:1014100040F0AD80FFF77AFD41F28838074605E0DD
:10142000FFF774FDC01B404500F29880336F9807AA
:10143000F6D4002D40F0D680A369CBB15F4DAA68E9
:1014400002F00C02082A36D0022B5F4B4FF000024C
:101450001A6000F0CD80FFF759FD2C46054604E0E8
:10146000FFF754FD401B022878D823689B01F7D46E
:10147000002002B0BDE8F081636903B3534B4F4EC7
:1014800001221A60FFF742FD054604E0FFF73EFD2A
:10149000401B022862D8736F9B07F7D523688EE73D
:1014A000526856023FF56CAF444A1268950739D529
:1014B000E268012A36D0012002B0BDE8F081434A3B
:1014C0003E4E1360FFF722FD054604E0FFF71EFDC8
:1014D000401B022842D8736F9F07F7D4DEE7002530
:1014E00080E74A6850027FF51AAF344A12689103C8
:1014F0007FF538AF6268002A7FF434AFDBE72F4A0C
:10150000136843F480331360FFF700FD2B4E05464C
:1015100004E0FFF7FBFC401B64281FD833689A03E4
:10152000F7D51EE7254920690A6822F0F80242EA49
:10153000C0020A601A077FF542AF9DE7336843F4A3
:1015400080733360FFF7E2FC07463368DA053FF546
:101550004EAFFFF7DBFCC01B0228F6D9032002B018
:10156000BDE8F081154A136F43F001031367FFF7DD
:10157000CDFC124F064641F2883804E0FFF7C6FC66
:10158000801B4045EAD83B6F9B07F7D5002D3FF401
:1015900053AF27E00A4A094E1360FFF7B7FC054630
:1015A00004E0FFF7B3FC401B0228D7D83368990743
:1015B000F7D4236801E70120704700BF00380240DC
:1015C000000047420070004060004742800E4742E2
:1015D000224B1A6842F480221A601A6842F4803260
:1015E0001A6091E71D4A136C23F08053136423E7BC
:1015F000FFF78CFC064604E0FFF788FC801B0228FE
:10160000ACD82B689901F7D4D4E90736D4E909029C
:10161000E16A334343EA8013520843EA0163013A23
:101620000F490E4E43EA024301226B600A60FFF746
:101630006DFC044604E0FFF769FC001B02288DD80E
:1016400033689A01F7D513E7044B1A6F42F004028E
:101650001A671A6F42F001021A6788E700380240E1
:1016600060004742174908B58B6803F00C03042B50
:101670001BD0082B17D14A684B6813F4800302F083
:101680003F0214D149681048C1F38811A1FB000141
:10169000FFF79AFA0B4B5B68C3F3014301335B001E
:1016A000B0FBF3F008BD084808BD084808BD4B680A
:1016B0000648C3F38813A3FB00010023FFF784FA55
:1016C000E8E700BF003802400024F40000127A006E
:1016D000002800F08680474A136803F00F038B420E
:1016E0002DE9F0410D46044609D2CBB213701368C0
:1016F00003F00F038B4202D00120BDE8F081236884
:10170000980714D5590704D53B498A6842F4E0523A
:101710008A601A0704D538498A6842F460428A60B0
:101720003549A0688A6822F0F00202438A60DF0728
:1017300021D56268012A56D0931E012B2E4B1B68BF
:101740004CD99907D8D52C4EB36823F00303134323
:10175000B360FFF7DBFB41F28838074604E0FFF790
:10176000D5FBC01B404543D8B368626803F00C0347
:10177000B3EB820FF3D11F4A136803F00F03AB42A0
:1017800006D9EBB21370136803F00F03AB42B3D169
:1017900023685A0706D51849E0688A6822F4E0529F
:1017A00002438A601B0707D5134A2169936823F413
:1017B000604343EAC1039360FFF754FF0E4A0F4CA6
:1017C00092680F49C2F303120346A25C0020D34083
:1017D0000B6002F043F90020BDE8F0819801B2D41B
:1017E0008AE701207047044B1B689E03ABD483E754
:1017F000032082E7003C0240003802408C8B000846
:1018000018000020044B054A9B680549C3F3822356
:101810000868D35CD8407047003802409C8B0008B1
:1018200018000020044B054A9B680549C3F3423366
:101830000868D35CD8407047003802409C8B000891
:10184000180000200E4B0F2202609A6802F003027B
:1018500042609A6802F0F00282609A6802F4E052F4
:10186000C2609B68DB0810B403F4E053054C0361CD
:1018700023685DF8044B03F00F030B60704700BF53
:1018800000380240003C02402DE9F04107460D4679
:10189000164698463A6801E0731C06D1946835EA0A
:1018A0000403F9D00020BDE8F081FFF72FFBA0EB87
:1018B00008008642EED8D7E900315A68B1F5827F38
:1018C00022F0E0025A6013D0BA6AB2F5005F07D185
:1018D0001A6822F400521A601A6842F400521A6020
:1018E0000122002387F8512087F850300320DAE7DF
:1018F000BA68B2F5004F02D0B2F5806FE4D11A6831
:1019000022F040021A60DFE770B5164C164B2568CE
:10191000A3FB0535436882B06D0D4FF47A7606FB64
:1019200005F5B3F5827F0446019507D10CE0019BD4
:101930002268013B019393681B0602D5019B002B93
:10194000F5D1002002B070BD13460A468021FFF792
:101950009BFF0028F5D0636D43F0200363650320EF
:10196000F0E700BF18000020819F5E1600283BD0E2
:1019700070B590F851200023044602F0FF01836205
:1019800062B31846D4E90135D4E903212B4313434C
:101990006269E569266A0B431343A26921682B43F8
:1019A000022584F85150334302F400750E682B432E
:1019B000120C656A02F0040203432A4326F0400633
:1019C0000E600B604A60CB69002223F4006301259E
:1019D000CB61626584F85150104670BD80F850109C
:1019E00001F04AFFA06ACDE7012070472DE9F041E0
:1019F000044690F85000012882B062D01D460123B1
:101A000084F8503088461746FFF780FA94F8513032
:101A1000012B0646D8B209D002200122002384F807
:101A2000512084F8503002B0BDE8F081B8F1000FC9
:101A3000F3D0002FF1D0032384F85130A268C4F80A
:101A4000308000236365C4E91033E786A363E3872E
:101A5000A3872368A786B2F5004F02BF1A6842F435
:101A600080421A601A68520603D41A6842F0400293
:101A70001A60E268B2F5006F626826D0002A4BD087
:101A8000012F49D0E38E9BB273B950E0226B1278DC
:101A90001A73E28E236B013A92B20133E28623631A
:101AA000E28E92B2002A42D023689A689207EDD45F
:101AB000FFF72CFA801BA842F2D36B1CF0D0032056
:101AC000ABE7022002B0BDE8F081002A45D14146D3
:101AD00031F8022BDA60E28E2163013A92B2E2869B
:101AE000E28E92B26AB922E0226B32F8021BD96010
:101AF000E38E2263013B9BB2E386E38E9BB2B3B1DC
:101B000023689A689007EFD4FFF700FA801BA84279
:101B1000F3D3691CF1D0D2E798F800201A73E38E52
:101B2000226B013B9BB20132E3862263AAE7324675
:101B300029462046FFF7E8FE08B120236365A36825
:101B400033B922680193D368019393680193019B91
:101B5000606D003818BF01205FE7012FC0D1B6E7E4
:101B600090F85100704700BF036A23F0010303623D
:101B7000F0B4036A124C476882698E680D6823F0DE
:101B8000020322F07302A04243EA060342EA05027E
:101B900009D00C4DA84206D0496847608261F0BC6C
:101BA000416303627047CC6823F008032343D1E903
:101BB000054527F440772C4323F004032743EBE744
:101BC0000000014000040140036A23F480730362B3
:101BD000F0B4036A134C4768C2698E680D6823F439
:101BE000007322F07302A04243EA062342EA050290
:101BF00009D00D4DA84206D049684760C261F0BCCB
:101C0000C16303627047CC6823F4006343EA042392
:101C1000D1E9054527F440572C4323F4806347EA74
:101C20000417E9E70000014000040140036A23F4BF
:101C300080530362F0B4036A0F4F4668C2698D682F
:101C40000C6823F4005322F4E642B84243EA053319
:101C500042EA042209D0094CA04206D049684660F5
:101C6000C261F0BC0164036270474C6926F480468F
:101C700046EA8416F2E700BF00000140000401407C
:101C8000026870B49368D1E9004023F07003034305
:101C900023F0070323436028936028D017D84028F7
:101CA0003AD0502820D1146A156A88680E6925F048
:101CB00001051562936924F00A0123F0F003014342
:101CC00043EA061393610020116270BC70477028CC
:101CD0000AD1D1E9024308699168234343EA00230A
:101CE00021F47F410B439360002070BC7047106A61
:101CF0008C680D6920F0100010629169136A21F45C
:101D0000704123F0A00341EA053143EA04139161D5
:101D1000002070BC13627047052C0FD0146A106A43
:101D20000D6920F001001062936923F0F00343EA8B
:101D3000051393610020146270BC70470120C4E752
:101D40000368DA6842F00102DA609A6802F007027A
:101D5000062A03D01A6842F001021A600020704778
:101D6000704700BF38B590F83C30012B1ED00125DC
:101D7000022380F83C5080F83D300446FFF780FF96
:101D800068B92368DA6822F04002DA60DA6822F47F
:101D90008042DA6084F83D5084F83C0038BD00236E
:101DA00084F83D5084F83C30284638BD022038BDC8
:101DB000704700BF704700BF704700BF704700BF4B
:101DC00003681A69910710B5044602D5DA689207CC
:101DD0005FD41A69500702D5DA68510746D41A69E8
:101DE000120702D5DA6810072ED41A69D20602D576
:101DF000DA68D00618D41A69D10702D5DA68D20792
:101E00005DD41A69100602D5DA6811065FD41A6922
:101E1000520602D5DA68500661D41A69910602D5D5
:101E2000DA68920643D410BD6FF0100108221961E0
:101E30002277DB6913F4407F204664D0FFF7BAFFB6
:101E4000002223682277D6E76FF008010422196187
:101E50002277DB699907204652D1FFF7A9FF204678
:101E6000FFF7AAFF002223682277BEE76FF0040184
:101E70000222196122779B6913F4407F20463CD1EE
:101E8000FFF796FF2046FFF797FF0022236822778F
:101E9000A5E76FF002010122196102779B699B0798
:101EA00025D0FFF787FF00222368227791E76FF0A4
:101EB000200220461A61BDE8104000F073B96FF0AF
:101EC00001021A61204601F0B1FC236899E76FF026
:101ED00080021A61204600F067F9236897E76FF0E7
:101EE00040021A612046FFF769FF236895E7FFF774
:101EF0005FFF2046FFF760FFD5E7FFF75BFFC4E712
:101F0000FFF758FFAEE7FFF753FF2046FFF754FFF8
:101F100096E700BF2F4A0368904270B443D0B0F1F7
:101F2000804F34D0A2F57C42904230D002F58062DE
:101F300090422CD002F58062904228D002F578427F
:101F4000904230D002F57052904224D002F5806267
:101F5000904220D002F5806290421CD0A2F59832C7
:101F6000904218D002F58062904214D002F580624F
:101F7000904210D04D698C680A6823F080032B438F
:101F800003600123C462826270BC436170474A6887
:101F900023F070031343CE684D698C680A6823F4FC
:101FA00040733343E9E74D68CC684A6923F0700316
:101FB0002B4323F44073234323F080031343036034
:101FC0008B68C3620B6883620B690363012370BC77
:101FD0004361704700000140C0B110B590F83D303A
:101FE000044603F0FF0263B10223214684F83D302A
:101FF00051F8040BFFF78EFF012384F83D300020D9
:1020000010BD80F83C2001F06FFCEDE70120704727
:10201000C0B110B590F83D30044603F0FF0263B143
:102020000223214684F83D3051F8040BFFF772FF7C
:10203000012384F83D30002010BD80F83C20FFF7DC
:102040008FFEEDE701207047036A23F0100303625F
:10205000F0B4036A134C476882698E680D6823F0F8
:10206000200322F4E642A04243EA061342EA052294
:1020700009D00D4DA84206D0496847608261F0BC86
:10208000816303627047CC6823F0800343EA041342
:10209000D1E9054527F440672C4323F0400347EA84
:1020A0008407E9E7000001400004014090F83C305B
:1020B000012B28D010B504460223012084F83C00EF
:1020C00084F83D300C2A0BD8DFE802F0070A0A0A30
:1020D000150A0A0A190A0A0A11002068FFF744FDC6
:1020E0000123002084F83D3084F83C0010BD2068B6
:1020F000FFF79CFDF4E72068FFF7A6FFF0E72068F4
:10210000FFF762FDECE70220704700BF90F83C202B
:10211000012A1AD070B40222046880F83D20D1E967
:10212000006503466068A26820F0700122F080021A
:1021300031432A43012600256160A26083F83D6097
:1021400083F83C50284670BC70470220704700BF9F
:1021500090F83C30012B22D030B4D1E90253044630
:1021600023F44073D1E900202B4323F4806303431D
:1021700023F40063D1E90450134323F480532B4329
:1021800023F40053C9692268034323F480430B43BB
:102190000021536484F83C10084630BC704702208C
:1021A000704700BF704700BF704700BF02681169E9
:1021B0002DE9F843C568836821F44051044629435A
:1021C00000691161D16865690343E06921F4164132
:1021D0002B4321F00C0103430B43D3605369A169E6
:1021E00023F440730B43B0F5004F53619B4B00F059
:1021F0009A809A4259D003F580639A4255D0FFF7EE
:1022000001FB974F636800EB800000EB80009B00B0
:10221000B0FBF3F3A7FB03235B091D01FFF7F2FA01
:10222000666800EB800000EB8000B600B0FBF6F6BD
:10223000FFF7E8FA636800EB800000EB80009B008A
:10224000B0FBF3F3A7FB03235B094FF0640909FB21
:1022500013631B013233A7FB03235B0903F0F00672
:10226000FFF7D0FA626800EB800000EB800093007B
:10227000B0FBF3F8FFF7C6FAD4E9002300EB8000C7
:1022800000EB80009B00B0FBF3F3A7FB03135B099B
:1022900009FB13831B013233A7FB0313C3F343135F
:1022A00033432B449360BDE8F883FFF7BBFA6C4FD0
:1022B000636800EB800000EB80009B00B0FBF3F351
:1022C000A7FB03235B091D01FFF7ACFA666800EB6F
:1022D000800000EB8000B600B0FBF6F6FFF7A2FA34
:1022E000636800EB800000EB80009B00B0FBF3F321
:1022F000A7FB03234FF064095B0909FB13631B0170
:102300003233A7FB03235B0903F0F006FFF78AFAD9
:10231000626800EB8000930000EB8000B0FBF3F8F4
:10232000FFF780FAA8E79A4259D003F580639A42F2
:1023300055D0FFF767FA4A4F636800EB800000EB67
:1023400080005B00B0FBF3F3A7FB03235B091E01D6
:10235000FFF758FA656800EB800000EB80006D0025
:10236000B0FBF5F5FFF74EFA636800EB800000EB79
:1023700080005B00B0FBF3F3A7FB03235B094FF086
:10238000640909FB1353DB003233A7FB03231B094A
:1023900003F4F875FFF736FA626800EB800000EB93
:1023A00080005300B0FBF3F8FFF72CFAD4E90023C8
:1023B00000EB800000EB80005B00B0FBF3F3A7FBB9
:1023C00003135B0909FB1383DB003233A7FB031301
:1023D000C3F3421333442B449360BDE8F883FFF703
:1023E00021FA1F4F636800EB800000EB80005B0068
:1023F000B0FBF3F3A7FB03235B091E01FFF712FAFF
:10240000656800EB800000EB80006D00B0FBF5F527
:10241000FFF708FA636800EB800000EB80005B00C8
:10242000B0FBF3F3A7FB03234FF064095B0909FB3F
:102430001353DB003233A7FB03231B0903F4F875A6
:10244000FFF7F0F9626800EB8000530000EB8000BA
:10245000B0FBF3F8FFF7E6F9A8E700BF0010014072
:102460001F85EB512DE9F04107460E4690461D466B
:102470003B6801E06A1C06D11C6836EA0402F9D107
:102480000020BDE8F08135B1FEF740FDA0EB08006B
:102490008542EDD23B68DA6822F4D072DA605A697C
:1024A000202122F0010200245A61032087F839100C
:1024B00087F8384087F83A10E3E700BF60B338B5D3
:1024C00090F83930044603F0FF0203B32268242356
:1024D00084F83930D36823F40053D3602046FFF7E3
:1024E00065FE23681A6922F490421A615A6922F043
:1024F0002A025A61DA680025202142F40052DA608B
:10250000E56384F8391084F83A10284638BD80F81D
:10251000382001F035FAD9E7012070472DE9F8435A
:10252000044690F83900202854D10F4600294CD099
:102530001546002A49D0984694F83830012B49D0E6
:102540000023E3630122212384F8393084F8382002
:10255000FEF7DCFCE584E38CA5849BB281465BB985
:1025600026E0FFF77FFF002837D1236817F8012BFB
:102570005A60E38C9BB2DBB1E58CA668013DADB23D
:10258000B6F5805F43464A464FF080012046E58419
:10259000E7D1FFF767FF00BB3B8821682269C3F3DF
:1025A00008034B60A2B9E38C9BB20237002BE3D146
:1025B00043464A4640212046FFF754FF68B920238E
:1025C00084F8380084F8393000E00120BDE8F88351
:1025D0000137CEE70220BDE8F8830320BDE8F88389
:1025E000704700BF704700BF08B58368B3F5805FD0
:1025F00017D0036973B10368826A5B68511C03F0EA
:102600007F0381621370C38D013B9BB2C3859BB175
:10261000002008BD836A0268591C526881621A70E2
:10262000F1E70269836ADAB902685268C2F3080204
:1026300023F8022B8362E6E70368DA6822F02002BF
:10264000DA60DA6822F48072DA605A69202122F0B6
:1026500001025A6180F83A10FFF7C4FF002008BD5C
:1026600002685268D2B223F8012B8362CBE700BF25
:10267000704700BF03681A6870B51607DD685969AE
:1026800004460CD1960601D5A9064DD4100601D5F5
:10269000290651D4560601D5680669D470BD01F0EB
:1026A000010105F490700843F0D0D60705D5E80580
:1026B00003D5E06B40F00100E063560729D561B116
:1026C000E16B900741F00201E16340F18380E16B2F
:1026D00041F00401E163110721D4E16B0029DDD051
:1026E000920609D5AE0607D594F83A20222A03D1DE
:1026F0002046FFF779FF23685A69E56B02F0400234
:1027000005F0080515433ED12046FFF7B1FFE5630C
:1027100070BD960757D41007DFD50029DDD0E16BD7
:1027200041F00801E163D8E790F83A30222BB5D1A7
:10273000BDE87040FFF758BF94F83920212AADD189
:10274000A268B2F5805F226A47D0511C21621278DC
:102750005A60E28C013A92B2E284002A9ED1DA6891
:1027600022F08002DA60DA6842F04002DA6070BD7E
:10277000DA68202122F04002DA60204684F839101D
:10278000FFF72EFF70BDDA6822F49072DA605A69A2
:10279000202122F001025A6184F83A105A69550644
:1027A00014D55A69606B22F040025A6170B1114B26
:1027B0000365FEF731FC00283FF470AF606BBDE8A5
:1027C0007040036D1847002981D186E72046FFF746
:1027D0004FFF70BD1107A2D47FE711882069C1F3B4
:1027E0000801596010B902322262B2E70132226256
:1027F000AFE700BFF927000808B5806B0023C38549
:10280000C384FFF735FF08BD00B583B051B960F050
:102810007F008DF8040001A9012001F021FA03B026
:102820005DF804FB60F03F007F298DF8040008D8B4
:102830008DF80510022001A901F012FA03B05DF82D
:1028400004FB61F07F00C9098DF805008DF80610C2
:10285000032001A901F004FA03B05DF804FB00BFF6
:1028600000B583B041B98DF8040001A9012001F041
:102870002DFA03B05DF804FB40F040007F298DF88D
:10288000040008D88DF80510022001A901F01EFAF5
:1028900003B05DF804FB61F07F00C9098DF8050005
:1028A0008DF80610032001A901F010FA03B05DF8BD
:1028B00004FB00BF10B40C4603461146112022460B
:1028C0005DF8044BFFF7CCBF30B583B0002101ADFC
:1028D000084604222B46FFF7C3FF0DF10702002034
:1028E0001478AA4204EB002002F1FF32F8D103B0C1
:1028F00030BD00BF30B583B001AD80B2042289B2D3
:102900002B46FFF7ADFF0DF1070200201478AA4215
:1029100004EB002002F1FF32F8D103B030BD00BF5C
:1029200010B582B0144680B289B201AB0422019482
:10293000FFF76AFF02B010BD30B583B001AD0446A9
:102940002B46022204212D20ADF80440FFF75CFF46
:1029500003242B46012206212D208DF80440FFF789
:1029600053FF00242B46012206212D208DF8044020
:10297000FFF74AFF04222D202B460A21FFF770FFA4
:1029800020460DF107021378AA4203EB002002F162
:10299000FF32F8D103B030BD10B582B00DF107039E
:1029A0000024012202212C208DF80740FFF72CFF84
:1029B00002210DF1070301222C208DF80710FFF7EB
:1029C00023FF02B010BD00BF30B583B001AB044699
:1029D0006D25012240F606012E208DF80450FFF7E8
:1029E00013FF01AB5CB140F20764022241F606011D
:1029F0002E20ADF80440FFF707FF03B030BD41F2D1
:102A00000764F2E72DE9F0470778A84B4279A84D13
:102A100090F8018033F812902968C3790A69042F6D
:102A200018BFA7F1070A08F1FF3818BFBAFA8AFAE7
:102A300082B004465FFA88F814BF4FEA5A1A4FF082
:102A4000010A002B40F0148142F480024FEAD909B8
:102A50000A61237A8B721E0422F4403206F4403657
:102A6000164304220E610DEB02031046002101966D
:102A7000FFF7CAFE01AB022242F604012E20ADF898
:102A80000490FFF7C1FE4046FFF79EFF894B8A4A3C
:102A9000DE5D52F82620019201AB042207212B2093
:102AA000FFF7B2FE854A925D8DF8042001AB01224A
:102AB0000B212B20FFF7A8FE814A12F80A208DF87F
:102AC000042001AB01220B212820FFF79DFE7D4A47
:102AD00052F82620019201AB04220C212820FFF796
:102AE00093FEE279A379784903EB4203022231F89D
:102AF0001330ADF80430114601AB2720FFF784FEF8
:102B0000724A32F81820ADF8042001AB02220421E9
:102B10002720FFF779FEE379002B00F0BD80A37832
:102B2000042B00F09480202601AB022206212720EE
:102B3000ADF80460FFF768FE282601AB01222621CC
:102B400027208DF80460FFF75FFEE278604902EB12
:102B5000880201AB51F8222001920821042227208B
:102B6000FFF752FE6389002B7BD0DAB24FEA132CB9
:102B7000584E8DF8042001AB0222202127208DF829
:102B800005C006EB4808FFF73FFE336801930422B7
:102B900001AB0C212320FFF737FEB8F80420ADF875
:102BA0000420042101AB02222320FFF72DFEA1798E
:102BB000002961D10A46667894F805C0207907F0AB
:102BC0000F03B60406F4402643EACC638005334382
:102BD0003F0100F0F860FFB2184338430843002675
:102BE00010434FEA104C070E314601AB8DF804003C
:102BF00004221F208DF806C08DF807708DF805603F
:102C0000FFF702FE6078A278E379296802435B034C
:102C100043EA0243CB601D0A1C0C314601AB04227F
:102C200008208DF806408DF804608DF807608DF857
:102C300005504224FFF7E8FD314601AB01220D208B
:102C40008DF80440FFF7E0FD02B0BDE8F0871026E4
:102C500001AB022206212720ADF80460FFF7D4FD66
:102C60006BE741F2410363814FF0100C41227FE793
:102C700022F480020A61ECE61749E2798A5C8DF859
:102C800004200021012201AB2120FFF7BDFD4FF4FC
:102C900000314FF440128EE7642601AB0222062178
:102CA0002720ADF80460FFF7AFFD4EE7D88A000893
:102CB00008000020848B0008548B00084C8B00080F
:102CC000488B00086C8B0008308B00082C8B0008A8
:102CD0000C8B0008408B00083C8B000830B583B09B
:102CE000044636256B4601A9022201208DF80450C6
:102CF00000F0ECFF0E2C12D8DFE804F02C083511A0
:102D00001111113E4D1111565D6427009DF80130DF
:102D1000002223F001038DF801308DF800200122FC
:102D20006B4601A91046B6248DF8044000F098FFC8
:102D30004FF4FB7401A90DF1010301220220ADF84B
:102D4000044000F08DFF03B030BD40F20133ADF818
:102D50000030E4E79DF8003023F0030343F0010363
:102D60008DF80030DBE79DF8003023F0030343F0DB
:102D700002038DF80030D2E79DF800309DF8012065
:102D800023F04C0343F0480362F07F028DF80030DB
:102D90008DF80120C3E7BDF8003023F4004323F091
:102DA0004C03ADF80030BAE79DF8013043F0020360
:102DB0008DF80130B3E79DF8013023F002038DF860
:102DC0000130ACE79DF8003023F0300343F02003DE
:102DD0008DF80030A3E700BF10B50E2082B0FFF7DA
:102DE0007DFF4FF4004401AB022206212D20ADF8F7
:102DF0000440FFF709FD012000F030FF0120FFF73C
:102E00006DFF02B010BD00BF10B5002082B0FFF70B
:102E100065FF002401AB022204213620ADF80440F6
:102E2000FFF7F2FC02B010BD00B583B00DF107034F
:102E3000012203210F20FFF713FD9DF8073083EADD
:102E400043031B0602D403B05DF804FB01220DF11D
:102E5000070303210D208DF80720FFF7D5FC03B0F1
:102E60005DF804FBF0B583B001AD04222B460021D0
:102E70000E20FFF7F5FC00240DF1070213789542B0
:102E800003EB042402F1FF32F8D100F0D7FE002654
:102E9000074631462B4604220E200196FFF7B4FC6C
:102EA0004FF0400C31462B4601220D208DF804C016
:102EB000FFF7AAFC0C4B019331462B4604220F204E
:102EC000FFF7A2FCFFF7B0FF2B46314604220E208D
:102ED0000194FFF799FC384600F0BCFE034B1B68D9
:102EE0005E7503B0F0BD00BFF8FF27240800002086
:102EF00030B5430783B0044627D514F0010517D039
:102F000001AB4FF44075022200210D20ADF80450B2
:102F1000FFF77AFC01AB012203210F20FFF7A0FC91
:102F20009DF8045015F0080512D1284603B030BDB5
:102F30004FF4807401AB022229460D20ADF8044005
:102F4000FFF762FC284603B030BDFFF76DFFD4E702
:102F5000FFF788FF14F0020102D04FF0FF35E4E7DD
:102F60004FF4807401AB02220D20ADF804404FF005
:102F7000FF35FFF749FCD8E730B5002483B0FFF7F1
:102F800043FF214601AB02222C20ADF80440FFF79D
:102F90003BFC01AB012206212C208DF80440FFF7F9
:102FA00033FCFFF7F9FC01AB0122032136208DF839
:102FB0000440FFF729FC012000F050FEF02501AB92
:102FC0000122032136208DF80450FFF71DFC024B2F
:102FD0001B685C7503B030BD080000202DE9F0438C
:102FE0009C4F3B680024C3E90A44C3E90C445C617C
:102FF00083B00646FFF768FC974B984240F0268165
:1030000016F0020800F0958016F0F80900F0FF8035
:1030100001AD21462B460424012224208DF80440D2
:10302000FFF7F2FB0DF107042B4630210422282084
:10303000FFF716FC2346002118789D4200EB012182
:1030400003F1FF33F8D1B1F1883F04D03A68D38A55
:1030500043F48053D38206F00A030A2B00F0EC807D
:10306000D7F80090002389F80B3016F0100340F0D9
:103070008F80C9F8003016F0200340F09480C9F822
:10308000043016F0400340F097803A68137216F04F
:10309000800340F09A803A685372B8F1000F40D133
:1030A000F10740F19D80FFF797FE3A68D38A43F419
:1030B0000063D3820120FFF711FE4FF000082B467A
:1030C00001220A212C208DF80480FFF79DFB0422A9
:1030D000414610462B463E68FFF7C2FB414622465A
:1030E0001078AA4200EB012102F1FF32F8D13F68CB
:1030F00031617B8A03F00303BB72042200212B465B
:103100000820FFF7ADFB224600211078954200EB26
:10311000012102F1FF32F8D1F960002003B0BDE8CF
:10312000F0837207C6D43A68D38A43F40063D3822B
:10313000C0E7FFF721FF01AD4046FFF7CFFD0424B4
:103140002B460122414624208DF80440FFF75CFB0A
:103150002046FFF7F1FB10F0FF0F5ED11E20FFF7B6
:10316000EBFB3B68C0F30722DA72C30633D170244D
:103170002B4601220E212B208DF80440FFF744FB43
:1031800016F01003D7F800900DF107043FF471AF6B
:103190000620FFF7D1FB16F02003C9F80000D7F88E
:1031A00000903FF46CAF0720FFF7C6FB16F040031A
:1031B000C9F804003FF469AF0820FFF7BDFB3B6886
:1031C000187216F080033FF466AF0920FFF7B4FBD6
:1031D0003B68587261E700F01F0040F06004C7E7E9
:1031E0002B46022205213620FFF73AFB9DF80530D9
:1031F0009DF8046006EB032626F400762B46022297
:1032000005213620ADF80460FFF7FEFA52E7484684
:10321000FFF764FD01AD4946FCE62B46012202247E
:1032200012212D208DF80440FFF7EEFA3A68D38A78
:1032300043F48053D38291E71E20FFF77DFBD7F83C
:103240000090C0F3072089F80B000EE74FF0FF3025
:1032500064E700BF080000203001CADE2DE9F04F0E
:1032600050488FB000F0C0FE00F0CEFD00F02EFE02
:103270000020FFF7B3FE013000F0908000F032FE36
:1032800049484A4CDFF868A1DFF86891FFF7BAFBBC
:10329000A4F17E080025464E334603F8015FA342A1
:1032A000FBD10020FFF724FE424FFFF70DFB0BE0A0
:1032B00000F09AFEFFF708FB3946024601A800F02D
:1032C00007FF01A800F090FE00210F20FFF712FB7E
:1032D000034613EA0A0F4846C8F88030E8D013F4D2
:1032E000804722D0344800F07FFE00211020FFF7F5
:1032F00001FB3249C0F309023148A8F8842000F0EC
:10330000E7FE2F4800F070FEB8F884107F292AD914
:103310002C4800F069FE4FF4804200210F20FFF797
:10332000FFFA294800F060FEB5E7284800F05CFE8F
:10333000D8F880202649274800F0CAFE254800F02A
:1033400053FE3946244A0F20FFF7EAFA234800F0DB
:103350004BFED8F880201E491E4800F0B9FE1D48DB
:1033600000F042FEDDE71E48DFF88CB0002200F1DD
:103370009007FFF79FFA1B4800F036FE16F8012F62
:103380003846594600F0A4FEA64207F10107F5D1E0
:10339000154888F80E5100F027FEBCE7134800F0EE
:1033A00023FEFEE7A48B00080C0000209A0A0020F0
:1033B0001B0A0020D88B0008F08B0008048C000842
:1033C000A40A0020148C0008588C0008288C0008DF
:1033D000388C00082C0B0020009005243C8C000841
:1033E0001C0A0020088C0008AC0A0020B48B0008DE
:1033F00000D00524C08B0008108C000870B5002494
:1034000094B0CDE90A44CDE90C44CDE90444CDE9BA
:1034100006441E4A01940394116C1D4B41F08051E7
:103420001164126C02F080520192019A02941A689F
:1034300042F440421A601B6803F4404302930121A6
:103440004FF4A0224FF480030225029808910992BC
:1034500008214FF490720F9308A80623109111923F
:1034600013930E9512950F26FDF742FF4FF4A052CD
:103470004FF4805303A80421CDE906230495059455
:103480000396FEF725F914B070BD00BF0038024066
:10349000007000402DE9804800249FB0FDF710FD2A
:1034A000FFF7ACFFCDE91644CDE91844C04B0094BA
:1034B0001A941A6BBF48DFF834B3BF4D42F00402D0
:1034C0001A631A6B02F004020092009A01941A6BBC
:1034D00042F020021A631A6B02F020020192019A54
:1034E00002941A6B42F080021A631A6B02F0800297
:1034F0000292029A03941A6B42F001021A631A6B49
:1035000002F001020392039A04941A6B42F0020241
:103510001A631A6B02F002020492049A05941A6B61
:1035200042F040021A631A6B02F040020592059ABB
:1035300006941A6B42F010021A631A6B02F0100222
:103540000692069A07941A6B42F008021A631B6BE4
:1035500003F008030793224644F28101079BFDF71D
:10356000B7FE964822464FF40051FDF7B1FE94484D
:1035700001224FF48041FDF7ABFE224691484021E5
:10358000FDF7A6FE4FF400588F48189416A902269E
:1035900003274FF00B09CDE9168BFDF74FFD3223C2
:1035A0008948189416A9CDE91636CDE91979FDF7A1
:1035B00045FD06238548169316A94FF0010ACDE96B
:1035C0001979CDE91764FDF739FD44F28103794893
:1035D00016A9CDE9163ACDE91844FDF72FFD4FF4B1
:1035E00080537648169316A9CDE917B6FDF726FD48
:1035F00011237248179316A9CDE91844CDF85880C5
:10360000FDF71CFD4FF440436C48169316A9CDE915
:103610001744FDF713FD44F283236A48169316A955
:10362000CDE91744FDF70AFD4FF428536848169377
:1036300016A9CDE91744FDF701FD5E48CDF8689065
:1036400016A9CDE91686CDE91847FDF7F7FC4FF42A
:1036500080435B48169316A9CDE917A41994FDF78A
:10366000EDFC40235748169316A9CDE917A41994E9
:103670004FF00A0AFDF7E2FC4FF4E8535348169363
:1036800016A9CDE9176419974FF4007BCDF868A00F
:10369000FDF7D4FC4D48CDF858B016A9CDE9174434
:1036A000FDF7CCFC4FF420534648169316A9CDE9FC
:1036B0001764CDF868901997FDF7C0FC22462146A3
:1036C0002820FDF74FFC2820FDF784FC41484249A3
:1036D000C0F818B04FF482721023C0E90012C36121
:1036E000C0E90244C0E90444C0E90844C0E90A4A08
:1036F000FEF73CF939483A4B84604FF4E1390C2726
:10370000C0E90039C0E90344C0E906444761FEF757
:10371000D5FE2146202216A8CDE90B44CDE90D4463
:10372000CDE91044CDE91244CDE914440A9408943B
:103730000F94099400F0C4FC4FF6FF7229492960E8
:103740004FF480732846C5E90323C5E905446C603E
:10375000AC60FEF741FC2846FEF75AFC06230AA996
:103760002846CDE90A34FEF7FDFA08A92846CDE936
:103770000844FEF7CBFC22460FA928461A4E1594A2
:10378000CDE90F44CDE91144CDE91344FEF78EFC99
:1037900016A92846CDE91644CDE91844CDE91A48C2
:1037A0001D94FEF7D5FC284600F0BEF820E000BFCF
:1037B0000038024000040240C80B00200014024000
:1037C000000C0240001802400008024000000240C5
:1037D00000100240480C002000300140080C00207E
:1037E0000048004000040140880B00200000111038
:1037F0000C4B33603046C6E90244C6E90447C6E9CB
:103800000644C6F80490FEF759FE204600F020FB5F
:10381000304600F0E3FB044800F0E6FBFFF71EFD36
:10382000FEE700BF00780040688C0008034B026888
:103830009A4200D07047FDF75DBB00BF001000400A
:1038400082B00C4B002100915A6C42F480425A64C1
:103850005A6C02F480420092009A01911A6C42F074
:1038600080521A641B6C03F080530193019B02B0D9
:10387000704700BF0038024070B50168184A88B030
:1038800000239142CDE90333CDE90533079301D0FD
:1038900008B070BD02F584320193516C114841F4B7
:1038A00080515164516C01F480510191019902934E
:1038B000116B41F001011163126B059302F00102DB
:1038C00002920523032203A9E0250224CDE9035433
:1038D000CDE90623029EFDF7B1FB08B070BD00BF25
:1038E00000300140000002400E4B02689A4200D0B6
:1038F000704700B583B0002203F59A330192596CEA
:1039000041F0020159645B6C03F00203019311461C
:103910002E20019BFDF726FB2E2003B05DF804EB63
:10392000FDF758BB0004014070B50168124A86B02B
:1039300000239142CDE90133CDE90333059301D052
:1039400006B070BD02F59A320093116B0B4841F03E
:1039500004011163126B039302F00402009201A9A7
:10396000032240250224CDE90154009E04930592D0
:10397000FDF764FB06B070BD000401400008024082
:1039800070B50368304A8AB000249342CDE90544FB
:10399000CDE90744099404D02C4A934226D00AB0BA
:1039A00070BD2B4B01941A6C2A4842F080421A6475
:1039B0001A6C02F080420192019A02941A6B42F052
:1039C00020021A631B6B03F020030293C02303221F
:1039D000059305A9082302250124CDE90654CDE964
:1039E0000823029EFDF72AFB0AB070BD184B039412
:1039F0001A6C194842F480221A641A6C02F480226C
:103A00000392039A04941A6B42F008021A631B6B28
:103A100003F0080304934FF44072022305A90592B2
:103A200006930322072301250993CDE90752049E3B
:103A3000FDF704FB224621462720FDF793FA2720B5
:103A4000FDF7C8FA0AB070BD007800400048004099
:103A50000038024000140240000C024030B501461C
:103A600089B000223620FDF77DFA3620FDF7B2FA44
:103A70000025164B02951A6C154C42F010021A6480
:103A80001B6C03F0100301A9029303A8029BFDF72E
:103A9000D9FEFDF7B7FE0F4A0F4925614300A2FB8F
:103AA00003239B0C013B40F2E7322046C4E9013579
:103AB0002160E260FEF790FA10B1012009B030BD3C
:103AC0002046FEF73DF909B030BD00BF0038024086
:103AD000640D002083DE1B4300100040704700BFD0
:103AE000FEE700BFFEE700BFFEE700BFFEE700BF46
:103AF000704700BF704700BF704700BF704700BFEE
:103B00000148FEF7B7BD00BF080C002008B54FF410
:103B10008050FDF7E1FBBDE808404FF40050FDF791
:103B2000DBBB00BF0148FEF74BB900BFC80B00204C
:103B30000148FEF745B900BF640D00200120704721
:103B400008B500F093FA162303604FF0FF3008BD6C
:103B500008B500F08BFA16230360FEE770B5161E59
:103B600007DD0C468D19AFF3008004F8010BA54268
:103B7000F9D1304670BD00BF70B5161E07DD0C468A
:103B80008D1914F8010BAFF30080A542F9D130462E
:103B900070BD00BF0C4A08B5136833B118446946BC
:103BA000884208D81060184608BD084B13601844B6
:103BB00069468842F6D900F059FA0C2303604FF0A9
:103BC000FF33184608BD00BF3C0B0020B80D002095
:103BD0004FF0FF30704700BF4FF400534B600020A0
:103BE000704700BF01207047002070471049114BFB
:103BF000D1F8882042F4700210B4C1F888201A6805
:103C00000D4C002042F001021A6098601A6822F000
:103C1000847222F480321A605C601A684FF000648B
:103C200022F480221A60D8608C605DF8044B7047E3
:103C300000ED00E0003802401030002410B500F024
:103C400097F9044608B9204610BD00F081F92046D6
:103C500010BD00BF00B9704700F082B900F0AAB8EB
:103C60002DE9F0478246894690461F46FFF7E6FF5A
:103C7000144D06462846FDF773FF01280446F9D186
:103C8000114800224FF48041FDF722FB524649467D
:103C90004FF0FF330B48FDF7A9FE4FF0FF331FFA3B
:103CA00088F239460748FDF7A1FE22464FF48041CD
:103CB0000548FDF70DFB3046FFF7CCFF0020BDE8BF
:103CC000F08700BF480C0020000C02402DE9F843AB
:103CD00080460C4617461D46FFF7B0FFDFF87C9084
:103CE00006464846FDF73CFF0128FAD11A48002253
:103CF0004FF48041FDF7ECFAB8F1000F0CD0DFF87B
:103D00005C90A044012221464FF0FF331444484602
:103D1000FDF76CFE4445F5D18FB1DFF840C0E819DE
:103D20000024DCF8002091688907FCD5D4609168F4
:103D3000CB07FCD5D36805F8013B8542F1D10122C0
:103D40004FF480410448FDF7C3FA3046FFF782FF85
:103D50000020BDE8F88300BF000C0240480C0020A2
:103D600080B485B000AF78600023FB6012E00023D0
:103D7000BB6004E000BF00BFBB680133BB60BB6831
:103D8000012BD4BF01230023DBB2002BF2D1FB684F
:103D90000133FB60FB687A689A428CBF01230023E1
:103DA000DBB2002BE3D100BF00BF1437BD465DF886
:103DB000047B704780B582B000AF78607868FDF70B
:103DC000ABF800BF0837BD4680BD00BF80B483B0EC
:103DD00000AF78600B4A7B685B0952F823207B6850
:103DE00003F01F0322FA03F303F00103002B14BFB7
:103DF00001230023DBB218460C37BD465DF8047B77
:103E0000704700BF00E100E080B586B000AF4FF41E
:103E100000537B601123BB6000233B613B1D1946AF
:103E20000A48FDF70BF900224FF400510748FDF74F
:103E30004FFA0120FFF794FF002000F009F802205C
:103E4000FFF7B8FF00BF1837BD4680BD0014024021
:103E500080B588B000AF78607B68002B15D04FF438
:103E60000053FB60174B3B6100237B6107F10C03A0
:103E700019461548FDF7E2F80620FDF7ABF80022D9
:103E800005210620FDF76EF817E00620FDF7B0F8D3
:103E90004FF40053FB6011233B6100237B6102233D
:103EA000BB6107F10C0319460748FDF7C7F801226B
:103EB0004FF400510448FDF70BFA00BF2037BD4610
:103EC00080BD00BF000011100014024080B500AF9B
:103ED000034B2022DA610248FDF748FD00BF80BD98
:103EE000480C002080B500AF034B0822DA6102487D
:103EF000FDF73CFD00BF80BD480C002080B582B0BE
:103F000000AF0346FB80FB88B3F5005F03D1074B8E
:103F100001221A6005E0FB88B3F5805F01D100F053
:103F200007F800BF0837BD4680BD00BF480B002022
:103F300080B500AF02E0054B1B68984700F020F801
:103F40000346002BF7D100BF00BF80BD440B00200B
:103F500080B500AF172000F02DF800BF80BD00BF76
:103F600080B500AF172000F017F800BF80BD00BF7C
:103F700080B500AF1720FFF729FF0346184680BD24
:103F800080B500AF4FF480510248FDF79BF903461E
:103F9000184680BD00140240002807DB00F01F0116
:103FA000034A400901238B4042F82030704700BF8C
:103FB00000E100E000280DDB43090749203301221E
:103FC00000F01F0002FA00F041F82300BFF34F8F0A
:103FD000BFF36F8F704700BF00E100E0014B186036
:103FE000704700BF4C0B002010B582B00190FCF769
:103FF000FFF8084B0199044682B218684FF0FF336E
:10400000FEF78CFA10B9A0B202B010BD4FF0FF302D
:10401000FAE700BF4C0B0020DFF834D0002103E0AA
:104020000C4B5B58435004310B480C4B42189A42DE
:10403000F6D30B4A02E0002342F8043B094B9A42B4
:10404000F9D3FFF7D3FD00F017F8FFF723FA704715
:10405000000003202890000800000020C80900206C
:10406000C8090020B40D0020FEE70000014B1868CD
:10407000704700BF1C00002070B50D4D0D4C641B37
:10408000A4100026A64209D10B4D0C4C04F018FDDB
:10409000641BA4100026A64205D170BD55F8043B50
:1040A00098470136EEE755F8043B98470136F2E7AA
:1040B0001C9000081C9000081C9000082490000828
:1040C00002440346934200D1704703F8011BF9E70D
:1040D0000EB400B59CB01DAB029006906FF000418D
:1040E000094807910491094953F8042B0591006888
:1040F000019302A900F00CF8029B00221A701CB078
:104100005DF804EB03B070471C0000200802FFFFBD
:104110002DE9F04F2DED048BCFB0894693461E4616
:10412000824602F06DF9036813931846FCF760F8B5
:10413000B9F80C300E9018061AD5D9F81030BBB962
:104140004021504602F064F9C9F80000C9F8100097
:1041500058B90C23CAF800304FF0FF330F930F9873
:104160004FB0BDEC048BBDE8F08F4023C9F814308C
:104170009FED937B0025CDE923558DED0C7BCDE99B
:10418000155525AC229405950A95129514950F9511
:104190005B461D4613F8012B0AB1252AF9D1B5EB70
:1041A0000B070DD0249B3B442493239B0133072B07
:1041B000C4E900B7239379DC08340F9B3B440F9389
:1041C0002B78002B01F0408100234FF0FF320135A6
:1041D0008DF86B300492109398460A272B212A46BB
:1041E00012F8013B07930B92079B203B5A2B00F2DE
:1041F000B485DFE813F07E00B205B2058600B20593
:10420000B205B2056500B205B20589009300B2059A
:1042100090009600B205B300B600B600B600B60036
:10422000B600B600B600B600B600B205B205B205DB
:10423000B205B205B205B2052701B205E900FC00DE
:10424000270127012701B205B205B205B205C60054
:10425000B205B2059204B205B205B205D904B205A1
:10426000FA04B205B2051905B205B205B205B205E8
:10427000B205B205B205B2052701B205E900FE009C
:10428000270127012701C900FE00DD00B205D60085
:10429000B2056F049404C804DD00B205D9047C00A3
:1042A000FC04B205B2053605B2057C0022AA4946D7
:1042B000504602F094FE002840F0328125AC7CE7A5
:1042C000504602F09DF8436814931846FBF790FFA0
:1042D0001290504602F094F883680A93129B2B21A7
:1042E0002BB10A9B1BB11B780BB148F480680B9D66
:1042F00075E79DF86B30002BF9D120238DF86B30DA
:10430000F5E748F00108F2E756F8043B1093002B5C
:10431000EDDA5B42109348F00408E8E78DF86B1083
:10432000E5E70B9A12F8013B07932A2B13D156F8B5
:10433000040B0B9240EAE0730493D8E7049807FB60
:104340000033049312F8013B0793079B303B092B82
:10435000F4D90B9248E700230493F6E748F080086D
:10436000C5E700230B9A1093079B1098303B07FB7F
:104370000033109312F8013B0793303B092BF3D91C
:10438000E7E748F00808B2E70B9B1B78682B01BFF2
:104390000B9B01330B9348F4007818BF48F040089A
:1043A000A5E70B9B1B786C2B05D10B9B01330B9363
:1043B00048F020089BE748F0100898E7AFF300802A
:1043C00000000000000000003246002052F8043BCC
:1043D00006928DF8D4308DF86B000123CDE90800EA
:1043E00003900493064605460DF1D40BB8E148F05E
:1043F000100818F0200F12D0073626F00703F3E854
:1044000002670693002E77F1000306DA76424FF03A
:104410002D0367EB47078DF86B3001238EE3331DC7
:1044200018F0100F069302D03668F717EAE718F075
:10443000400F366801D036B2F7E718F4007F18BF96
:1044400076B2F2E7073626F00703B3EC027B8DED78
:104450000C7B06930C9B09EE103A0D9B23F0004356
:1044600009EE903A4FF0FF323A4B51EC190BFCF742
:104470006DFB10BB374B51EC190B4FF0FF32FCF7C3
:1044800047FBD0B9DDE90C0100220023FCF736FB25
:1044900010B12D238DF86B302F4A3048079B002137
:1044A000472BD4BF934683460323CDE9031328F05B
:1044B00080080026334601F002B8DDE90C231046DF
:1044C0001946FCF743FB40B10D9B254A2548002BBC
:1044D000BCBF2D238DF86B30E0E7079B23F0200352
:1044E000412B089325D130238DF86C30079B612B2D
:1044F0000CBF782358238DF86D30049B632B48F054
:10450000020831DD591C504601F082FF8346002825
:1045100040F0FE81B9F80C3043F04003A9F80C30AC
:10452000B9F80C3013F0400F0F9B18BF4FF0FF335A
:1045300014E6049B013300F0ED81089B472B40F00B
:10454000EC81049B002B40F0E8810393012304934A
:104550000DE000BFFFFFEF7F7C8C0008808C00081F
:10456000848C0008888C000803900DF1D40B48F46B
:10457000807311930D9B002B80F2D1810C9B08EE70
:10458000103A0D9B03F1004308EE903A2D23189347
:10459000089B412B40F0E181B0EE480AF0EE680A3A
:1045A0001CA802F0C1FC00224FF07F5351EC100B0D
:1045B000FCF732F80022002306460F46FCF794FA77
:1045C00008B101231C93B44BB44A0799612918BF61
:1045D0001A46049B1792013B05935D46B04B00229F
:1045E00030463946FCF718F80F460646FCF7C4FA81
:1045F0001990FBF7A7FF02460B4630463946FBF7FA
:1046000053FE199A179B9B5C05F8013B059B099388
:104610005A1C06460F4607D0013B05930022002393
:10462000FCF762FA0028D9D09E4B0022304639466A
:10463000FCF782FA60B99B4B002230463946FCF702
:1046400053FA002800F08481199BDF0740F1808134
:10465000179B2095D97B3020209A531E209312F867
:10466000013C8B4200F06381392B0BBF179B013358
:104670009B7ADBB202F8013CA5EB0B030593089B88
:104680001C9D472B40F0B181EE1C03DB049BAB4229
:1046900080F2D681079B023B079307999DF81C2067
:1046A00021F02001412908BF0F3205F1FF3306BF79
:1046B000D2B201210021002B1C93B8BFC5F1010328
:1046C0008DF87820B4BF2D222B22092B8DF879206C
:1046D00040F3A4810DF187020A26114693FBF6F5FB
:1046E00006FB1530303001F8010C1846632802F142
:1046F000FF322B46F1DC3033881E02F8013C0DF10D
:1047000087050DF17A020346AB42C0F082810DF1BC
:104710008902521AA84288BF00220DF17A031A4476
:104720001EABD31A059A1593012A1344049302DC95
:1047300018F0010F03D0049B0E9A1344049328F43D
:10474000806343F4807311930023CDE908331D4641
:10475000189B13B12D238DF86B30DDF844800026B3
:10476000049BB342B8BF334611939DF86B3013B12D
:10477000119B0133119318F0020317931EBF119B75
:104780000233119318F0840318931FD1DDE910321E
:104790009F1A002F1ADDDDE9233243482060102FD5
:1047A00003F1010304F1080100F3E6826760072BBF
:1047B0001744CDE9233740F3F28222AA49465046F6
:1047C00002F00DFC002840F01D8625AC9DF86B30F2
:1047D00073B10DF16B03236001236360249B0133EC
:1047E0002493239B0133072B239300F3DA820834AD
:1047F000179B6BB11BAB236002236360249B0233C6
:104800002493239B0133072B239300F3D482083492
:10481000189B802B1FD1DDE910329F1A002F1ADD63
:10482000DDE9233221482060102F03F1010304F158
:10483000080100F3CA826760072B1744CDE92337CC
:1048400040F3D68222AA4946504602F0C8FB00280F
:1048500040F0D88525AC049BF61A002E28DD134FB6
:104860002760DDE92332102E03F1010304F1080172
:1048700000F3C0826660072B1644CDE9233640F36F
:10488000CC8222AA4946504602F0A9FB002840F0FB
:10489000B98525AC0CE000BF9D8C00088C8C00080D
:1048A000000030400000E03FB08C0008C08C0008E1
:1048B00018F4807F249E40F0B782049BC4F800B0B7
:1048C0001E4463602496239B0133072B239300F33C
:1048D000F082083418F0040F40F07685DDE90F32DD
:1048E00011998A42ACBF9B185B180F93249B3BB174
:1048F00022AA4946504602F072FB002840F0828509
:1049000000232393039B002B40F0988525ACEDE01A
:1049100003902CE60390062319E6039027E69DED0D
:104920000C7B0023B0EE478AF0EE678A2FE602F890
:10493000010C91E603F8010BCA1A002AFADA099A67
:10494000099B013203F10103B8BF00231D4493E624
:10495000099A2B46A9183020EEE7089B462B05D074
:10496000452B1BD1049B5D1C022101E0049D03210A
:1049700020AB01931DAB00932A461CAB5046B0EE12
:10498000480AF0EE680A00F03FFE089B472B83467A
:1049900006D118F0010F03D1209D6DE6049DE3E7D9
:1049A000089B462B0BEB05060FD19BF80030302BF4
:1049B00009D151EC180B00220023FCF795F810B92F
:1049C000C5F101051C951C9B1E4451EC180B0022DF
:1049D0000023FCF789F800B120963022209B9E42EC
:1049E000DAD9591C20911A70F8E7089B462B7FF4FE
:1049F00054AE049A08F00103002D43EA02031ADDC5
:104A0000002B34D00E9BEB181A44049266230793B4
:104A100033E013F8016B02F8016B75E641B93022FF
:104A20008DF87A200DF17B02303302F8013B77E6F6
:104A30000DF17A02F8E7E3B10E9B049A0133E3E744
:104A4000059B9D4207DB18F0010F2DD00E9BEB1844
:104A500004936723DBE7059B0E9A002D1344049310
:104A6000F7DC049AC5F101031A441346F0E70495F4
:104A7000CCE7662307930123049318F4806309931A
:104A800025D00023002DCDE908337FF761AE0A9BC6
:104A90001B78FF2B0AD1DDE9082304991344129AED
:104AA00002FB0313049353E60495D2E7AB42F2DA18
:104AB000ED1A0A9B5B7833B1099B013309930A9B7A
:104AC00001330A93E3E7089B01330893DFE7099B6F
:104AD00008933DE6324618F0200F52F8043B069248
:104AE00009D00F9A1046D117C3E90001069EDDF8E0
:104AF0002CB0FFF74DBB18F0100F02D00F9A1A60C0
:104B0000F4E718F0400F02D00F9A1A80EEE718F47D
:104B1000007FF3D00F9A1A70E8E748F0100818F0F9
:104B2000200F1ED0073626F00703F3E8026706932E
:104B300028F48068002300228DF86B20049A01324B
:104B400000F08D8428F08002039256EA070240F0BC
:104B50008C84049A002A00F0F580012B40F08884B0
:104B600097E0331D18F0100F069301D0366803E06C
:104B700018F0400F02D036880027D9E718F4007FDC
:104B8000F4D03678F8E73346782253F8046B06936E
:104B900047F63003ADF86C30A14B1693002748F070
:104BA000020802230792C6E73346002553F804BBE8
:104BB0000693049B8DF86B50591C10D01A46294659
:104BC0005846FBF71DFB0390002800F0D280A0EBB5
:104BD0000B03CDE90353CDE908552E46C0E55846F1
:104BE000FBF706FBCDE9035063E448F0100818F02A
:104BF000200F07D0073626F00703F3E80267069375
:104C0000012398E7331D18F0100F069301D0366882
:104C100003E018F0400F02D036880027F0E718F4C0
:104C2000007FF4D03678F8E77E4B169318F0200F0B
:104C300019D0073626F00703F3E80267069318F049
:104C4000010F0AD056EA070307D030238DF86C30E5
:104C5000079B8DF86D3048F0020828F48068022325
:104C600069E76F4BE1E7331D18F0100F069301D091
:104C7000366803E018F0400F02D036880027DEE7E0
:104C800018F4007FF4D03678F8E7002F08BF0A2E1A
:104C900006D230368DF837610DF2371B00F006BCB6
:104CA00000230593039B4EAD03F480680A22002382
:104CB00030463946FBF788FF059B3032013305F15A
:104CC000FF3B05F8012C0593B8F1000F19D00A9BA2
:104CD000059A1B789A4214D1FF2A12D0002F08BFE0
:104CE0000A2E0ED3129B1499ABEB030B1A465846AF
:104CF00002F062F90A9B5D7895B101330A930023B3
:104D000005930A22002330463946FBF75DFF002F4A
:104D100008BF0A2EC0F0CA8306460F465D46C5E7A7
:104D20000595EEE7169A06F00F03D35C0BF8013DEC
:104D3000330943EA07733A091E46174656EA070342
:104D4000F0D1B3E333B918F0010F03D030238DF85D
:104D50003731A1E70DF59C7BA8E3079B002B00F002
:104D6000738300208DF8D4308DF86B000696FFF722
:104D700034BB039EFFF79EBB10200244072BCDE9F6
:104D80002332606008DD22AA4946504602F027F926
:104D9000002840F0378325A9103F0C46FBE40C4661
:104DA00014E522AA4946504602F019F9002840F0BD
:104DB000298325AC1CE522AA4946504602F00FF98A
:104DC000002840F01F8325AC22E510200244072B69
:104DD000CDE92332606008DD22AA4946504602F040
:104DE000FEF8002840F00E8325A9103F0C4617E579
:104DF0000C4630E510200244072BCDE923326060D9
:104E000008DD22AA4946504602F0E9F8002840F0A1
:104E1000F98225A9103E0C4622E50C4648E500BF64
:104E20008C8C00089D8C0008079B652B40F3328218
:104E3000DDE90C0100220023FBF756FE002868D0B4
:104E40006D4B236001231E446360239B2496013332
:104E5000072B239337DC08341C9B059A934203DB12
:104E600018F0010F3FF436AD139B23600E9B0E9A92
:104E70006360249B13442493239B0133072B2393C8
:104E80002BDC0834059B5D1E002D7FF723AD5B4EA8
:104E90001027DDE92332102D03F1010304F108018D
:104EA000266024DC6560072B1544CDE9233540F3EB
:104EB000888222AA4946504602F091F8002840F024
:104EC000A18225AC06E522AA4946504602F087F8A1
:104ED000002840F0978225ACBEE722AA49465046FA
:104EE00002F07DF8002840F08D8225ACCAE7103230
:104EF000072BCDE92332676008DD22AA49465046D8
:104F000002F06DF8002840F07D8225A9103D0C4686
:104F1000BFE71C9B002B73DC374B236001231E442F
:104F20006360239B24960133072B23933DDC0834D5
:104F300005991C9A249B0A4308F001010A433FF497
:104F4000C9AC139A22600E9A626013442493239B87
:104F50000133072B239332DC08341C9D002D1BDA10
:104F6000264E6D4223461027DDE92321102D02F144
:104F7000010204F108041E602BDC5D60072A0D4469
:104F8000CDE9232508DD22AA4946504602F027F83C
:104F9000002840F0378225AC059B059A6360249B6E
:104FA000C4F800B0134424938DE422AA4946504625
:104FB00002F015F8002840F0258225ACB8E722AAB7
:104FC0004946504602F00BF8002840F01B8225AC01
:104FD000C3E71031072ACDE923215F6008DD22AA4B
:104FE0004946504601F0FBFF002840F00B8225ACFB
:104FF000103D2346B8E700BFAE8C0008C08C000807
:10500000059BAB42A8BF2B46002B1F460ADD1E4462
:10501000C4E900B3239B24960133072B239300F3A9
:1050200086800834002FACBFEE1B2E46002E19DD03
:10503000974F2760DDE92332102E03F1010304F1BD
:1050400008017EDC6660072B1644CDE9233640F369
:105050008B8022AA4946504601F0C1FF002840F04B
:10506000D18125AC18F4806F5D440BD0884E099B2C
:10507000002B7BD1089B002B7BD1059B5B449D4281
:1050800028BF1D461C9B059A934202DB18F0010FB6
:105090000ED0139B23600E9B0E9A6360249B1344D7
:1050A0002493239B0133072B239300F3DD800834E3
:1050B000059B1C9E0BEB03029E1B521B9642A8BF36
:1050C0001646002E0BDD249B33442493239B01338F
:1050D000072BC4E90056239300F3D08008341C9DAD
:1050E000059B002EA3EB0505A8BFAD1B002D7FF788
:1050F000F1AB674E1027DDE92332102D03F10103D8
:1051000004F1080126607FF7CDAE1032072BCDE900
:105110002332676008DD22AA4946504601F05FFF4E
:10512000002840F06F8125A9103D0C46E3E722AA34
:105130004946504601F053FF002840F0638125ACFA
:1051400070E710200244072BCDE92332606008DDB0
:1051500022AA4946504601F042FF002840F0528101
:1051600025A9103E0C4664E70C467BE7089B002B04
:105170004AD0089B013B0893149B2360129B129A10
:105180006360249B13442493239B0133072B2393B5
:1051900041DC0834059B5B445A1B0A9B1B789342F5
:1051A000A8BF1346002B1F460ADDC4E90053249B09
:1051B0003B442493239B0133072B239335DC083492
:1051C0000A9B1B78002FACBFDF1B1F46002F17DD8B
:1051D000DDE92323102F02F1010204F1080126600A
:1051E0002DDC3B44072ACDE9232367603ADD22AA60
:1051F0004946504601F0F3FE002840F0038125ACFB
:105200000A9B1B781D4432E70A9B013B0A93099BCA
:10521000013B0993B0E722AA4946504601F0DFFE60
:10522000002840F0EF8025ACB4E722AA494650465A
:1052300001F0D5FE002840F0E58025ACC0E7102045
:105240000344072ACDE92323606008DD22AA4946EA
:10525000504601F0C4FE002840F0D48025A9103F3C
:105260000C46B5E70C46CBE722AA4946504601F06A
:10527000B6FE002840F0C68025AC19E722AA4946B0
:10528000504601F0ACFE002840F0BC8025AC26E77B
:10529000C08C0008059A239B012A06F1010603F140
:1052A000010304F1080502DC18F0010F7ED0012291
:1052B000072BCDE92336C4F800B0626008DD22AACE
:1052C0004946504601F08BFE002840F09B8025ADFA
:1052D000139B2B600E9B0E9A6B60249B13442493AC
:1052E000239B0133072B239332DC0835059BDDE933
:1052F0000C015C1E00220023FBF7F6FB002830D1D6
:105300002399249B059A0131013B0BF101001344C1
:105310000729C5E90004CDE9231350DD22AA494637
:10532000504601F05CFE00286CD125AD1EAB2B6011
:10533000159B159A6B60249B13442493239B013384
:10534000072B23933FF7B5AD05F10804FFF7C2BA69
:1053500022AA4946504601F042FE002852D125AD0E
:10536000C4E7002CE2DD584E1027DDE92332102C73
:1053700003F1010305F108012E6007DC6C60072BC7
:105380001444CDE92334C9DC0D46CFE71032072B96
:10539000CDE923326F6006DD22AA4946504601F06E
:1053A0001EFE78BB25A9103C0D46DEE70122072B27
:1053B000CDE92336C4F800B06260B7DDAEE708354A
:1053C000B4E70C46FFF786BADDE910329D1A002DCE
:1053D0007FF784AA3D4E1027DDE92332102D03F11B
:1053E0000103266018DC6560072B1544CDE92335E1
:1053F0007FF774AA22AA4946504601F0F0FD002822
:105400003FF46CAA039B002B3FF48AA81946504630
:1054100000F036FFFFF784B81032072BCDE92332B6
:10542000676002DC0834103DD6E722AA49465046A0
:1054300001F0D5FD0028E5D125ACF4E703995046ED
:1054400000F01EFFFFF762BA249B002B3FF468A810
:1054500022AA4946504601F0C2FDFFF761B856EA5C
:105460000702CDF80C803FF478AB012B3FF40DAC74
:10547000022B0DF59C7B3FF455ACF20842EA4772D3
:10548000F80806F0070307461646303356EA0702C7
:1054900059460BF8013DF0D1039AD20706D5302BBF
:1054A00004D030230BF8013CA1F1020B4EABA3EB6F
:1054B0000B03049E04930023DDF80C800393CDE9D5
:1054C00008331D46FFF74CB9C08C0008B08C0008AB
:1054D000024B13B1024800F005B87047000000000D
:1054E000B1610008002301461A46184601F000BECB
:1054F0002DE9F74F03690C69A3420746C0F281808A
:10550000013C01F1140800F1140505EB840301933B
:1055100058F8243055F8242001339A424FEA840B7E
:1055200008EB8409B2FBF3F631D34FF0000E40468E
:10553000AC46F24650F8042B93B206FB03E34FEA65
:10554000134E9BB2AAEB0303120CDCF800A006FB7F
:1055500002E213FA8AF34FEA124E1FFA82FADCF8DB
:105560000020CAEB124202EB23429BB243EA024301
:1055700081454CF8043B4FEA224ADBD255F80B3008
:105580002BB9019B043B9D421A462ED33C61384601
:1055900001F0CAFB002824DB013628464FF0000C3E
:1055A00058F8042BD0F800E093B2ACEB0303120CD4
:1055B00013FA8EF3C2EB1E4202EB23429BB243EA84
:1055C0000243C14540F8043B4FEA224CE8D255F86B
:1055D000242005EB840322B9043B9D421A460AD3DA
:1055E0003C61304603B0BDE8F08F1268043B002AEE
:1055F000CCD1013CC7E71268043B002AF0D1013C42
:10560000EBE70020EEE700002DE9F04F2DED028BD7
:1056100095B057EC106B0591016C209D0992CDE976
:10562000026704460F9341B1426C4A6001239340E4
:105630008B6001F06EF9002323643B1EB9BF23F099
:105640000043039300232B60DDF80C90A24BBCBFFA
:1056500001222A6033EA09031BD10F9A42F20F7329
:105660001360C9F31303334300F07885219B0BB912
:105670009A4B24E0994B00930333219A13600098CE
:1056800015B0BDEC028BBDE8F08F954B009308334D
:10569000F3E79DED027B002251EC170B00238DED0B
:1056A0000A7BFBF721FA804658B10F9A0123136059
:1056B000219B002B00F04F858A481860431E009301
:1056C000DDE79DED0A0B12AA13A9204601F0D0FBDD
:1056D000C9F30A558346002D7CD00B9BCDF8408042
:1056E000C3F31303DDE90A6743F07F5747F440171C
:1056F000A5F2FF357C4B002230463946FAF7D4FD3F
:105700006FA3D3E90023FAF787FF6FA3D3E9002340
:10571000FAF7CCFD064628460F46FAF713FF6CA3AE
:10572000D3E90023FAF778FF02460B4630463946A4
:10573000FAF7BCFD06460F46FBF71EFA002282462A
:10574000002330463946FBF7D9F948B15046FAF7FD
:10575000F9FE32463B46FBF7C7F908B90AF1FF3AB2
:10576000BAF1160F54D8614B03EBCA03D3E90023F7
:10577000DDE90A01FBF7C2F900284BD00AF1FF3A34
:1057800000230E93129B5D1B6B1E049343BF0023EB
:10579000C5F1010804934FF00008BAF1000F3BDB9C
:1057A000049BCDF834A05344049300230693059B37
:1057B000092B6AD8052BC4BF043B0593059BA3F1B5
:1057C0000203CCBF00250125032B6AD8DFE803F0D4
:1057D0002C4F4D5BDDE912531D4405F23243202B63
:1057E000C1BFC3F1400305F2124009FA03F326FAE0
:1057F00000F0DABFC3F1200306FA03F01843FAF70A
:1058000091FE01230646A1F1F877013D109371E75F
:105810000123B6E70E90B5E7CAF100030693002313
:10582000A8EB0A080D93C2E700230893099B002BFD
:105830003ADC4FF00109CDF804904B46CDF82490A6
:1058400000226264042202F114009842616C31D992
:10585000204601F039F8009000284DD1244B024633
:105860004FF4D571234801F083FC0123DDE70023C9
:105870000893099B0AEB030909F10103012B01932A
:10588000B8BF0123DCE70123F2E7012500230593DC
:1058900008954FF0FF390022CDF8049012230992A9
:1058A000CEE701230893F4E7DDF82490CDF80490C7
:1058B0004B46C5E7013161645200C4E7AFF3008095
:1058C00061436F63A787D23FB3C8608B288AC63F06
:1058D000FB799F501344D33F0000F07FD08C000829
:1058E000D48C0008AF8C00080000F83FD88D000869
:1058F000DD8C0008EE8C0008009B2364019B0E2BBE
:1059000000F2AD80002D00F0AA80BAF1000F36DD64
:10591000C24A0AF00F0302EBC30393ED007B1AF4B3
:10592000807F4FEA2A17B0EE478AF0EE678A16D0DA
:10593000BB4BDDE90A01D3E90823FAF797FFCDE96C
:10594000020107F00F070325B54E57B9DDE9020143
:1059500053EC182BFAF78AFFCDE9020129E0022562
:10596000F2E7F90708D551EC180BD6E90023FAF74E
:1059700053FE41EC180B01357F100836E5E700F0C7
:10598000A680CAF10006A54BA54F06F00F0203EB57
:10599000C203D3E90023DDE90A01FAF73DFECDE9B0
:1059A0000201361100230225002E40F08580002BD5
:1059B000D2D10E9B002B00F08C80DDE90267994B61
:1059C000002230463946FBF799F8002800F0818024
:1059D000019B002B7DD0B9F1000F3CDD0AF1FF33B4
:1059E00007930022904B30463946FAF715FECDE971
:1059F00002010135CDF83090DDE902672846FAF75B
:105A0000A1FD32463B46FAF707FE884B0022FAF723
:105A10004DFCA1F15073CDE9020103930C9B002BC7
:105A20005CD1834B002230463946FAF73DFCDDE974
:105A3000022306460F46FBF77FF8002840F09582C8
:105A4000DDE90221304601F100433946FBF756F803
:105A5000002840F08782DDE90A23CDE90223139B69
:105A6000002BC0F25781BAF10E0F00F353816B4B3C
:105A700003EBCA03D3E90089099B002B80F2E28083
:105A8000019B002B00F3DE8040F06C82684B00220B
:105A900040464946FAF7C0FDDDE90223FBF742F82C
:105AA000019E3746002840F04282009D312305F8D0
:105AB000013B0AF1010A3EE2F20705D5D7E90023CE
:105AC000FAF7AAFD01350123761008376CE70225A5
:105AD0006FE7019BCDF81CA00C938DE700990C9803
